:100000009CC00000C2C00000C0C00000BEC0000014
:10001000BCC00000BAC00000B8C00000B6C00000FC
:10002000B4C00000B2C00000B0C00000AEC000000C
:10003000ACC00000AAC00000A8C000000FC30000B0
:10004000A4C00000A2C00000A0C000009EC000002C
:100050009CC000009AC0000098C0000096C000003C
:1000600094C0000092C0000090C000002EC30000A9
:1000700026C3000030C3000088C00000076342367A
:10008000B79BD8A71A39685618AEBAAB558C1D3C29
:10009000B7CC5763BD6DEDFD753EF6177231BF00ED
:1000A0000000803F08000000BE922449123EABAA27
:1000B000AA2ABECDCCCC4C3E00000080BEABAAAA82
:1000C000AA3E00000000BF000000803F00000000CA
:1000D00000084178D3BB4387D1133D190E3CC3BD03
:1000E0004282AD2B3E68EC8276BED98FE1A93E4CB0
:1000F00080EFFFBE01C4FF7F3F00000000004641CB
:10010000554C542000574153482000732920004982
:100110004E5428004C4F2000484920005041524B7B
:10012000454400535745455000207C20007C2070FA
:1001300061726B3D00530000E40311241FBECFEF3A
:10014000CDBFDFE3DEBF809140008093400081118E
:1001500005C098ED21E094BF209341008CBB29E3BA
:10016000A0E0B8E301C01D92A130B207E1F710E0B2
:10017000CDE9D0E004C02197FE010E94130CCC39D8
:10018000D107C9F77CD30C94190C3ACFAF92BF9228
:10019000CF92DF92EF92FF920F931F93CF93DF9353
:1001A0006C017B018B01040F151FEB015E01AE1882
:1001B000BF08C017D10759F06991D601ED91FC91A4
:1001C0000190F081E02DC6010995892B79F7C501D1
:1001D000DF91CF911F910F91FF90EF90DF90CF9023
:1001E000BF90AF900895FC0157854089252F30E0DE
:1001F000842F90E0821B930B541710F0CF96089534
:1002000001970895FC0195858685981761F0A6856C
:10021000AE0FBF2FB11D51968C9196859F5F9F7336
:10022000968790E008958FEF9FEF0895FC019585E4
:100230008685981731F08685E80FF11D818990E059
:1002400008958FEF9FEF0895FC0195852685892FEE
:1002500090E0805C9F4F821B91098F7399270895CE
:10026000DC010FB607FE04C0809111018823B1F0B4
:100270001896ED91FC911997848185FF0FC01F9608
:100280009C911F9750968C91981304C085818F7D07
:1002900085830895EEE3F8E3E8942AC208950F9366
:1002A0001F93CF93DF93EC018C8581608C879F85B2
:1002B000888998130BC0E885F985848185FF06C07D
:1002C0008C8581FD0DC080E4848312C0062F1F85BC
:1002D0001F5F1F738889811315C0CE01C1DFFACF5C
:1002E00085818F77806490E49483E885F9858583A0
:1002F000E885F985628381E090E0DF91CF911F91DD
:100300000F910895EF85EC0FFD2FF11DEF5AFF4F70
:1003100000831F878C85E885F98581FF09C0858169
:100320008F77806690E49483E885F9858583E3CFB1
:1003300085818062FBCF0F931F93CF93DF938C0156
:10034000D0E0C0E0F801EC0FFD1F6491662339F0A6
:100350008EE398E3A4DF892B11F02196F3CFCE0131
:10036000DF91CF911F910F910895CF93DF93EC010F
:100370008C8580FF0BC0E885F985858185FD03C0EC
:10038000848186FD03C0CE016BDFF5CFDF91CF9175
:100390000895CF92DF92EF92FF92FC01858186173C
:1003A00051F065832683378340875187FF90EF9014
:1003B000DF90CF90089594819817C1F3C680D780BD
:1003C000E084F1842C193D094E095F09C080D18079
:1003D000E280F3802C153D054E055F0538F38483DC
:1003E000E5CFFC0101900020E9F73197AF01481BF0
:1003F000590BBC018EE398E3C9CE8F929F92AF92C6
:10040000BF920F931F93CF93DF93CDB7DEB7A19722
:10041000CDBFDEBF19A2423008F44AE08E010F5D65
:100420001F4F842E912CB12CA12CA50194010E9468
:10043000F10BE62FB901CA01EA30D4F4E05DD8012E
:10044000EE938D01232B242B252B79F790E080E070
:10045000109711F0CD01C5DFA196CDBFDEBFDF91B2
:10046000CF911F910F91BF90AF909F908F90089563
:10047000E95CE5CF90E0FC01E358F74620812F3F8F
:1004800079F085599746DC01EC91B0E2EB9FF001E1
:100490001124FC5F9085922381E019F480E0089597
:1004A0008FEF0895CF93DF93282F30E0E901C358F1
:1004B000D74688818F3F09F43FC0A9014559574667
:1004C000DA01EC91B0E2EB9FF0011124FC5F6111C5
:1004D00036C0868390818923A1F4C901875A974643
:1004E000DC019C91309769F1983058F57096E90FCE
:1004F000F11D9FB7F8948081611126C0877F8083AA
:100500009FBF295B3746F90190819923A9F0888123
:10051000903409F1983FE1F0903171F4DA019C9147
:100520009130A1F4853010F0880F82959091010AE6
:10053000809589238093010ADF91CF910895858367
:10054000C9CFF0E0E0E0D5CF8860D9CF880FEECFFB
:100550001092A006F1CF823019F180E49091920AB6
:10056000982351F34FB7F8949091800A9E7F90930F
:10057000800A2091920A90E08095909530E0822345
:10058000932328ED24BF8093920A80918E0A80FFE6
:10059000FCCF8091800A81608093800A4FBFCCCFCE
:1005A00080E8DCCF8231F0F490E0FC01E358F746BC
:1005B00020812F3FB9F0FC01E559F746E08130E298
:1005C000E39FF0011124FC5F60FF0DC02183875A77
:1005D0009746DC018C91E80FF11D808961FF05C011
:1005E0008860808B08952283F2CF877FFACF809135
:1005F0002E3890912F38B0E0A0E0853321E09207AB
:10060000A105B10524F084E391E0A0E0B0E08630DC
:100610009105A105B10524F486E090E0A0E0B0E0EA
:10062000BC01CD0166507109810991095AD620E0BB
:1006300030E047E953E4BFD59B01AC0160E070E0D6
:1006400080EC90E465D720E030E04AEF54E4FDD63A
:1006500020E030E040E05FE346D515C68F9381E0AF
:1006600080938D0A8FB78F93EF93FF93E4E3F8E3C2
:100670009F9368948FEF0FC0E894848195818C5E7E
:100680009F4F84839583885E934010F08FEF03C063
:10069000848395838EEF9081981B919390819F4FD7
:1006A000919390819F4F919390819F4F919326F3C7
:1006B0009F91FF91EF918F918FBF8F911895EF933D
:1006C000FF93F898EEE3F8E30BC0EF93FF93F898ED
:1006D000EEE3F8E333C0EF93FF93EEE3F8E35BC0A0
:1006E0002F932FB72F938F939F93AF93BF936894BC
:1006F000CF93DF9320E0C085D8E09089DF01A90F78
:10070000B21FAF5ABF4F8C9120E42C838A839F5F26
:100710009F738D812785291302C08F7D8D83908BD8
:10072000DF91CF910EF0BACDBF91AF919F918F9194
:100730002F912FBF2F91FF91EF9118952F932FB7E6
:100740002F933F938F939F93CF93DF93C085D8E0F0
:10075000898198818674880F3485382B82FD0DC07D
:10076000C58581E08C0F8F732685281791F0CE0FF9
:10077000DF2F20E0D21F998B85873487DF91CF91BF
:100780009F918F913F912F912FBF2F91FF91EF91CB
:1007900018953064F2CF8F938FB78F939F93CF9339
:1007A000DF93C085D8E09D8188818C8187FDFCCF57
:1007B0009F7B90689D83DF91CF919F918F918FBF99
:1007C0008F91FF91EF911895EEE3F8E31282138277
:1007D00088EE93E0A0E0B0E084839583A683B7839E
:1007E00083E998E98083918380E098E0808791870E
:1007F00012861386E7EFF8E38EE190E0A0E0B0E028
:1008000080839183A283B383148215821682178218
:1008100010861186EDEEF8E380839183A283B38383
:10082000148215821682178210861186E3EEF8E391
:1008300080839183A283B3831482158216821782E8
:1008400010861186E9EDF8E380839183A283B38358
:10085000148215821682178210861186EFECF8E357
:1008600085E090E0A0E0B0E080839183A283B38331
:10087000148215821682178210861186089581E0EF
:1008800098ED94BF80936100E0E0F6E092E59283FA
:100890009AE0958390E29383808310920202809382
:1008A000030A9EEF9093260A9093270A9BE0909369
:1008B000000AE0E8FAE02DEF31E026A737A7118221
:1008C00090E89283848781E18083789461E08AE074
:1008D00069DE61E08BE066DE61E08CE063DE61E0B2
:1008E0008DE060DE60E088E05DDE62E085E05ADE9B
:1008F00062E084E057DE8EE398E3B2DC80914A3810
:1009000080FF11C08EE398E330DDE0914638F0912E
:1009100047381682158280EC848380914C3880930E
:100920004B3810924A381FB7F894E0914638F0914E
:100930004738168283E0878385E191E0808791873D
:10094000148680E8858380EC868390914938C09135
:10095000483880910102992309F45CC28160809338
:100960000102C90FDD27DD1FCC0FDD1FCC0FDD1FFE
:10097000CA5CD74661E0888115DE62E0898112DEBB
:100980001FBF27E4A22E28E9B22E332433948824F3
:10099000839432E0232E8FB7F894C0903838D090EB
:1009A0003938E0903A38F0903B388FBFEFE3F8E900
:1009B00004E218E3D801819187FD04C0863008F075
:1009C0002BC28C5F982F9F77903208F039C290919C
:1009D0000006992309F437C28F718093060630927E
:1009E000080680910B0680FFFCCF80911006909145
:1009F00011068D939D93AE16BF06E9F661E08091D6
:100A00002638909127388639910508F060E0A701D3
:100A1000960187EF98E3BDDC61E0809128389091E2
:100A200029388639910508F060E0A70196018DEE1E
:100A300098E3AFDC61E080912A3890912B388639B9
:100A4000910508F060E0A701960183EE98E3A1DC30
:100A500061E080912C3890912D388639910508F00D
:100A600060E0A701960189ED98E393DC88E002DD60
:100A700061E0811160E0A70196018FEC98E389DCC9
:100A80007090D338C0912138CC2309F4DFC17110A4
:100A9000E1C1C0921D38D0921E38E0921F38F0920A
:100AA00020387092213885E0E5DC8111D5C182E0E3
:100AB00090911C382091DD38222309F4EEC2911167
:100AC00010C080921C38C0921838D0921938E09229
:100AD0001A38F0921B38109217381092163810926C
:100AE000153860911C386623B9F0809118389091C0
:100AF0001938A0911A38B0911B38A7019601281B0C
:100B0000390B4A0B5B0BDA01C90161E08031974276
:100B1000A105B10508F060E0609314388CE0C2DCF8
:100B2000CC2309F4C3C280911738882399F090919F
:100B30001C3891110FC081508093173881110AC061
:100B400080921538C0921038D0921138E092123845
:100B5000F092133881E090911738923008F480E0D9
:100B600080931638D091E7389090F138D11176C142
:100B70008091FB38811172C1911070C18091FB3856
:100B8000811174C1C0911C38CC2309F473C18091C8
:100B9000183890911938A0911A38B0911B38A701D4
:100BA0009601281B390B4A0B5B0BDA01C90177242C
:100BB00073948C329140A105B10508F4712CC0E00A
:100BC000911010C010920F38D701C601805E9E426E
:100BD000A109B10980930B3890930C38A0930D387C
:100BE000B0930E3880910A38811163C2C0921D38CB
:100BF000D0921E38E0921F38F0922038D11108C0F0
:100C0000D091FB38D11104C0D091DD389110D92D8D
:100C100080910938882341F0D11106C0109209381B
:100C2000109217381092153880910938882311F0E6
:100C3000712CC0E080910438C81781F060E08AE030
:100C400031DCC09304386C2F8BE02CDCC092003870
:100C5000D0920138E0920238F09203387720B9F050
:100C60008091003890910138A0910238B0910338FA
:100C7000A7019601281B390B4A0B5B0BDA01C9014E
:100C800077247394CC97A105B10508F4712C709268
:100C90000A38672D8AE006DCC091093824E630E086
:100CA00040E050E0C11104C024EF31E040E050E0EA
:100CB000C701B60196D5DA01C90181709927AA2723
:100CC000BB27682FC11112C060910A3861110EC094
:100CD0006091143861110AC06091F138662331F0D7
:100CE00061E0892B8A2B8B2B09F460E08DE0DADB45
:100CF00084E0C0DB81114FCE809105389091063899
:100D0000A0910738B0910838A7019601281B390B2C
:100D10004A0B5B0BDA01C9018A3F9105A105B105B8
:100D200008F439CEC0920538D0920638E0920738E0
:100D3000F0920838C12CD12C7601C39485E391E060
:100D4000FADA4AE0C701B60158DB6DE38EE398E3B7
:100D5000A6DAF801619171918F0190E080E04AE09C
:100D60004CDB60E28EE398E39ADAFFEFCF1ADF0AFA
:100D7000EF0AFF0A29E0C216D104E104F104F1F6FA
:100D80008DE291E0D8DA8091D338882309F430C11C
:100D900083E291E0D0DA89E291E0CDDA8091E73820
:100DA000882319F088E191E0C6DA8091FB38882326
:100DB00019F084E191E0BFDA8091F1388823C1F025
:100DC0008FE091E0B8DA13DC8AD220E030E04AE725
:100DD00054E4F1D16B017C01AC019B01E5D3882384
:100DE00009F409C181EA98E9FCDA8BE091E0A3DA21
:100DF0008091DD38882319F085E091E09CDA8091BC
:100E00000938882319F08EEF90E095DA8DEA98E999
:100E1000E8DAC1CD8E7FA3CD813161F092EF980FDA
:100E2000933010F48D50CECD883031F0893031F4CC
:100E30008BE0C8CD80E0C6CD8AE0C4CD8FEFC2CDB7
:100E40008FEF92E8D6CD89EF92E8D3CD711021CE05
:100E5000C72D27CEC0E025CE83E02ACE10921538CC
:100E6000DD2309F48BCECD2F7D2EAACEC0E07724D2
:100E70007394A6CE80911738882341F07324823072
:100E800010F077247394C09116389ACE809115385B
:100E9000882309F440C08130F9F480911038909192
:100EA0001138A0911238B0911338A7019601281B70
:100EB000390B4A0B5B0BDA01C901803A9F40A1054F
:100EC000B10550F020921538C0921038D0921138E8
:100ED000E0921238F092133880911538823031F553
:100EE000711016C08091103890911138A09112386D
:100EF000B0911338A7019601281B390B4A0B5B0BE5
:100F0000DA01C9018C3D9540A105B10508F4AECFC9
:100F100010921538ACCF992009F467C080910F3832
:100F2000813031F128F0823009F445C0712C48CE6F
:100F300080910B3890910C38A0910D38B0910E38FB
:100F400026013701481A590A6A0A7B0A50DB4616FD
:100F500057066806790650F080920F38C0920B3819
:100F6000D0920C38E0920D38F0920E38712C3ACEB7
:100F7000711015C080910B3890910C38A0910D38EC
:100F8000B0910E38A7019601281B390B4A0B5B0B59
:100F9000DA01C9018C3D9540A105B10550F02092C0
:100FA0000F38C0920B38D0920C38E0920D38F09286
:100FB0000E38792C17CE7720A9F080910B389091BC
:100FC0000C38A0910D38B0910E38A7019601281B5E
:100FD000390B4A0B5B0BDA01C90180349F41A10533
:100FE000B10520F210920F38B9CF712CC92DEACD7E
:100FF0008CE191E0CFCE2FEF3FEF4FE75FE7C701E6
:10100000B601D2D281110CC02FEF3FEF4FE75FE75F
:10101000C701B601CCD018161CF485EA98E9E4CED5
:101020002FEF3FEF4FE75FE4C701B6010AD2181672
:101030001CF489EA98E9D8CE2FEF3FEF4FE75FEC39
:10104000C701B601B4D087FDF4CF2DEC3CEC4CE4E5
:101050005DE3C701B60147D02B013C0114D16B0100
:101060007C013DD19B01AC01C301B2013BD02B01FE
:101070003C014AE0C701B601C0D980EB98E9B1D97B
:1010800020E030E040E251E4C301B201DED1FBD008
:1010900090E080E04AE0B1D9A8CE992309F421CDAF
:1010A00010921C38870D809317381BCD71105ACDC4
:1010B00051CD80911D3890911E38A0911F38B0916C
:1010C0002038A7019601281B390B4A0B5B0BDA016C
:1010D000C90180349F41A105B10508F48FCD8092EC
:1010E00009388CCD5058BB27AA270ED070C161D1CA
:1010F00030F066D120F031F49F3F11F41EF456C158
:101100000EF4E095E7FB4CC1E92F72D180F3BA17DA
:10111000620773078407950718F071F49EF58AC17A
:101120000EF4E0950B2EBA2FA02D0B01B901900102
:101130000C01CA01A0011124FF27591B99F0593F46
:1011400050F4503E68F11A16F040A22F232F342F8E
:101150004427585FF3CF469537952795A795F040DC
:101160005395C9F77EF41F16BA0B620B730B840BF1
:10117000BAF09150A1F0FF0FBB1F661F771F881FA9
:10118000C2F70EC0BA0F621F731F841F48F4879501
:1011900077956795B795F7959E3F08F0B3CF9395F0
:1011A000880F08F09927EE0F979587950895D4D06A
:1011B00008F481E008950CD00AC102D140F0F9D0C2
:1011C00030F021F45F3F19F0EBC0511134C1EEC093
:1011D0000FD198F39923C9F35523B1F3951B550B00
:1011E000BB27AA2762177307840738F09F5F5F4FFA
:1011F000220F331F441FAA1FA9F333D00E2E3AF03B
:10120000E0E830D091505040E695001CCAF729D054
:10121000FE2F27D0660F771F881FBB1F26173707A3
:101220004807AB07B0E809F0BB0B802DBF01FF27D3
:1012300093585F4F2AF09E3F510568F0B1C0FBC044
:101240005F3FECF3983EDCF3869577956795B7950D
:10125000F7959F5FC9F7880F911D9695879597F928
:101260000895E1E0660F771F881FBB1F62177307A1
:101270008407BA0720F0621B730B840BBA0BEE1FB6
:1012800088F7E0950895BCD088F09F5790F0B92F6B
:101290009927B751A0F0D1F0660F771F881F991FCB
:1012A0001AF0BA95C9F712C0B13081F0C3D0B1E0DD
:1012B0000895C0C0672F782F8827B85F39F0B93FED
:1012C000CCF3869577956795B395D9F73EF49095CD
:1012D0008095709561957F4F8F4F9F4F0895E8944B
:1012E00009C097FB3EF490958095709561957F4F6E
:1012F0008F4F9F4F9923A9F0F92F96E9BB2793951C
:10130000F695879577956795B795F111F8CFFAF42B
:10131000BB0F11F460FF1BC06F5F7F4F8F4F9F4F5C
:1013200016C0882311F096E911C0772321F09EE8BA
:10133000872F762F05C0662371F096E8862F70E020
:1013400060E02AF09A95660F771F881FDAF7880FFA
:101350009695879597F90895990F0008550FAA0B50
:10136000E0E8FEEF16161706E807F907C0F01216B8
:101370001306E407F50798F0621B730B840B950BBB
:1013800039F40A2661F0232B242B252B21F4089510
:101390000A2609F4A140A6958FEF811D811D0895AD
:1013A00097F99F6780E870E060E008959FEF80EC18
:1013B000089500240A9416161706180609060895BB
:1013C00000240A9412161306140605060895092E21
:1013D0000394000C11F4882352F0BB0F40F4BF2B90
:1013E00011F460FF04C06F5F7F4F8F4F9F4F0895D0
:1013F00057FD9058440F551F59F05F3F71F04795C6
:10140000880F97FB991F61F09F3F79F087950895AA
:10141000121613061406551FF2CF4695F1DF08C0C9
:10142000161617061806991FF1CF869571056105E6
:1014300008940895E894BB2766277727CB0197F98E
:1014400008958ADF08F48FEF08950BD0C0CFB1DF85
:1014500028F0B6DF18F0952309F0A2CFA7CF11240A
:10146000EACFC6DFA0F3959FD1F3950F50E0551F4B
:10147000629FF001729FBB27F00DB11D639FAA27E9
:10148000F00DB11DAA1F649F6627B00DA11D661F38
:10149000829F2227B00DA11D621F739FB00DA11D59
:1014A000621F839FA00D611D221F749F3327A00D13
:1014B000611D231F849F600D211D822F762F6A2FAF
:1014C00011249F5750408AF0E1F088234AF0EE0F34
:1014D000FF1FBB1F661F771F881F91505040A9F741
:1014E0009E3F510570F05CCFA6CF5F3FECF3983E76
:1014F000DCF3869577956795B795F795E7959F5FA8
:10150000C1F7FE2B880F911D9695879597F9089541
:10151000FA01EE0FFF1F30962105310599F1611593
:10152000710561F48038BFE39B0749F168949038F6
:10153000810561F08038BFEF9B0741F0992342F5A8
:10154000FF3FE1053105210511F1E8940894E79585
:10155000D901AA2329F4AB2FBE2FF85FD0F310C016
:10156000FF5F70F4A695E0F7F73950F019F0FF3AF5
:1015700038F49F779F930CD00F9007FC90580895F4
:101580003EF014CF60E070E080E89FE308954FE7FD
:101590009F775F934F933F932F93A2D02F913F91CB
:1015A0004F915F9152DF09C0D7DE880B990B0895E8
:1015B00019F40EF0F5CE3ECFF9CE22DFC8F39638FF
:1015C000C0F707F80F92E8942BE33AEA48EB5FE79D
:1015D0004ADF0F920F920F924DB75EB70F92C0D0B5
:1015E000ECE7F0E016D04F915F91EF91FF91E59518
:1015F000EE1FFF1F49F0FE57E0684427EE0F441F1F
:10160000FA95E1F74195550B32D00F9007FE26C0B1
:101610000895DF93CF931F930F93FF92EF92DF9282
:101620007B018C01689405C0DA2EEF011ADFFE0100
:10163000E894A5912591359145915591AEF3EF012F
:1016400063DDFE019701A801DA9479F7DF90EF904E
:10165000FF900F911F91CF91DF9108959B01AC01F5
:1016600060E070E080E89FE3A6CD9ACEACC0C8DE13
:10167000E8F39923D9F3940F511DBBF391505040D7
:1016800094F059F0882332F0660F771F881F91502D
:101690005040C1F79E3F510544F7880F911D969524
:1016A000879597F908955F3FACF0983E9CF0BB2773
:1016B000869577956795B79508F4B1609395C1F7CE
:1016C000BB0F58F711F460FFE8CF6F5F7F4F8F4F6C
:1016D0009F4FE3CFB0CE0EF076C068CE689460CE58
:1016E0008FDEC8F39923D1F3C6F3DF93CF931F9313
:1016F0000F93FF92C92FDD2788232AF02197660FC9
:10170000771F881FDAF720E030E040E85FEB9FE3C7
:10171000883920F0803E30F021968F77E4DCE4EACF
:10172000F0E003C0E0DCE1EDF0E073DF8B01BE012F
:10173000EC01FB2E6F5771097595771F880B990B7C
:10174000D0DD28E132E741E35FE38BDEAF2D980186
:10175000AE01FF900F911F91CF91DF91D5DC37CE75
:10176000FA01DC01AA0FBB1F9B01AC01BF5728F493
:1017700022273327442750781FC0B75188F4AB2F56
:101780000024469537952795011CA395D2F3002098
:1017900069F0220F331F441FB395DAF30DD0A2CCAA
:1017A00061307105A0E88A07B94630F49B01AC01AD
:1017B0006627772788279078309621F02083318319
:1017C0004283538308959F3F31F0915020F48795D1
:1017D00077956795B795880F911D9695879597F999
:1017E0000895A1E21A2EAA1BBB1BFD010DC0AA1F62
:1017F000BB1FEE1FFF1FA217B307E407F50720F07A
:10180000A21BB30BE40BF50B661F771F881F991FF4
:101810001A9469F760957095809590959B01AC013D
:10182000BD01CF010895EE0FFF1F0590F491E02D4B
:061830000994F894FFCFBB
:10183600070608090E0F1000000E0F100001020324
:10184600091010F8000000001010104040000000C1
:10185600001000040506070504030201000001024A
:101866000301020300000000000101010101010261
:10187600020202000000001020408020100804022E
:10188600010102040802040801000000004F01C61D
:1018960000F300B5012401020116016E616E0069B4
:0C18A6006E66006F7666000D0A002E00D2
:00000001FF
